{
  "_format": "hh3-artifact-1",
  "contractName": "UpgradableContract",
  "sourceName": "contracts/UpgradableContract.sol",
  "abi": [
    {
      "inputs": [],
      "stateMutability": "nonpayable",
      "type": "constructor"
    },
    {
      "inputs": [
        {
          "internalType": "address",
          "name": "target",
          "type": "address"
        }
      ],
      "name": "AddressEmptyCode",
      "type": "error"
    },
    {
      "inputs": [
        {
          "internalType": "address",
          "name": "implementation",
          "type": "address"
        }
      ],
      "name": "ERC1967InvalidImplementation",
      "type": "error"
    },
    {
      "inputs": [],
      "name": "ERC1967NonPayable",
      "type": "error"
    },
    {
      "inputs": [],
      "name": "FailedCall",
      "type": "error"
    },
    {
      "inputs": [],
      "name": "InvalidInitialization",
      "type": "error"
    },
    {
      "inputs": [],
      "name": "NotInitializing",
      "type": "error"
    },
    {
      "inputs": [
        {
          "internalType": "address",
          "name": "owner",
          "type": "address"
        }
      ],
      "name": "OwnableInvalidOwner",
      "type": "error"
    },
    {
      "inputs": [
        {
          "internalType": "address",
          "name": "account",
          "type": "address"
        }
      ],
      "name": "OwnableUnauthorizedAccount",
      "type": "error"
    },
    {
      "inputs": [],
      "name": "UUPSUnauthorizedCallContext",
      "type": "error"
    },
    {
      "inputs": [
        {
          "internalType": "bytes32",
          "name": "slot",
          "type": "bytes32"
        }
      ],
      "name": "UUPSUnsupportedProxiableUUID",
      "type": "error"
    },
    {
      "anonymous": false,
      "inputs": [
        {
          "indexed": false,
          "internalType": "uint64",
          "name": "version",
          "type": "uint64"
        }
      ],
      "name": "Initialized",
      "type": "event"
    },
    {
      "anonymous": false,
      "inputs": [
        {
          "indexed": true,
          "internalType": "address",
          "name": "previousOwner",
          "type": "address"
        },
        {
          "indexed": true,
          "internalType": "address",
          "name": "newOwner",
          "type": "address"
        }
      ],
      "name": "OwnershipTransferred",
      "type": "event"
    },
    {
      "anonymous": false,
      "inputs": [
        {
          "indexed": true,
          "internalType": "address",
          "name": "implementation",
          "type": "address"
        }
      ],
      "name": "Upgraded",
      "type": "event"
    },
    {
      "inputs": [],
      "name": "UPGRADE_INTERFACE_VERSION",
      "outputs": [
        {
          "internalType": "string",
          "name": "",
          "type": "string"
        }
      ],
      "stateMutability": "view",
      "type": "function"
    },
    {
      "inputs": [
        {
          "internalType": "string",
          "name": "_name",
          "type": "string"
        },
        {
          "internalType": "uint256",
          "name": "_initialValue",
          "type": "uint256"
        }
      ],
      "name": "initialize",
      "outputs": [],
      "stateMutability": "nonpayable",
      "type": "function"
    },
    {
      "inputs": [],
      "name": "name",
      "outputs": [
        {
          "internalType": "string",
          "name": "",
          "type": "string"
        }
      ],
      "stateMutability": "view",
      "type": "function"
    },
    {
      "inputs": [],
      "name": "owner",
      "outputs": [
        {
          "internalType": "address",
          "name": "",
          "type": "address"
        }
      ],
      "stateMutability": "view",
      "type": "function"
    },
    {
      "inputs": [],
      "name": "proxiableUUID",
      "outputs": [
        {
          "internalType": "bytes32",
          "name": "",
          "type": "bytes32"
        }
      ],
      "stateMutability": "view",
      "type": "function"
    },
    {
      "inputs": [],
      "name": "renounceOwnership",
      "outputs": [],
      "stateMutability": "nonpayable",
      "type": "function"
    },
    {
      "inputs": [
        {
          "internalType": "string",
          "name": "_name",
          "type": "string"
        }
      ],
      "name": "setName",
      "outputs": [],
      "stateMutability": "nonpayable",
      "type": "function"
    },
    {
      "inputs": [
        {
          "internalType": "uint256",
          "name": "_value",
          "type": "uint256"
        }
      ],
      "name": "setValue",
      "outputs": [],
      "stateMutability": "nonpayable",
      "type": "function"
    },
    {
      "inputs": [
        {
          "internalType": "address",
          "name": "newOwner",
          "type": "address"
        }
      ],
      "name": "transferOwnership",
      "outputs": [],
      "stateMutability": "nonpayable",
      "type": "function"
    },
    {
      "inputs": [
        {
          "internalType": "address",
          "name": "newImplementation",
          "type": "address"
        },
        {
          "internalType": "bytes",
          "name": "data",
          "type": "bytes"
        }
      ],
      "name": "upgradeToAndCall",
      "outputs": [],
      "stateMutability": "payable",
      "type": "function"
    },
    {
      "inputs": [],
      "name": "value",
      "outputs": [
        {
          "internalType": "uint256",
          "name": "",
          "type": "uint256"
        }
      ],
      "stateMutability": "view",
      "type": "function"
    },
    {
      "inputs": [],
      "name": "version",
      "outputs": [
        {
          "internalType": "uint256",
          "name": "",
          "type": "uint256"
        }
      ],
      "stateMutability": "view",
      "type": "function"
    }
  ],
  "bytecode": "0x60a060405230608052348015610013575f5ffd5b5061001c610021565b6100d3565b7ff0c57e16840df040f15088dc2f81fe391c3923bec73e23a9662efc9c229c6a00805468010000000000000000900460ff16156100715760405163f92ee8a960e01b815260040160405180910390fd5b80546001600160401b03908116146100d05780546001600160401b0319166001600160401b0390811782556040519081527fc7f505b2f371ae2175ee4913f4499e1f2633a7b5936321eed1cdaeb6115181d29060200160405180910390a15b50565b608051610d136100f95f395f818161049f015281816104c8015261060c0152610d135ff3fe6080604052600436106100a5575f3560e01c8063715018a611610062578063715018a6146101515780638beaf7d7146101655780638da5cb5b14610184578063ad3cb1cc146101ca578063c47f0027146101fa578063f2fde38b14610219575f5ffd5b806306fdde03146100a95780633fa4f245146100d35780634f1ef286146100f557806352d1902d1461010a57806354fd4d501461011e5780635524107714610133575b5f5ffd5b3480156100b4575f5ffd5b506100bd610238565b6040516100ca919061094f565b60405180910390f35b3480156100de575f5ffd5b506100e75f5481565b6040519081526020016100ca565b610108610103366004610a2a565b6102c4565b005b348015610115575f5ffd5b506100e76102e3565b348015610129575f5ffd5b506100e760025481565b34801561013e575f5ffd5b5061010861014d366004610a88565b5f55565b34801561015c575f5ffd5b506101086102fe565b348015610170575f5ffd5b5061010861017f366004610abd565b610311565b34801561018f575f5ffd5b507f9016d09d72d40fdae2fd8ceac6b6234c7706214fd39c1cd1e609a0528c199300546040516001600160a01b0390911681526020016100ca565b3480156101d5575f5ffd5b506100bd604051806040016040528060058152602001640352e302e360dc1b81525081565b348015610205575f5ffd5b50610108610214366004610aff565b61043e565b348015610224575f5ffd5b50610108610233366004610b39565b610452565b6001805461024590610b52565b80601f016020809104026020016040519081016040528092919081815260200182805461027190610b52565b80156102bc5780601f10610293576101008083540402835291602001916102bc565b820191905f5260205f20905b81548152906001019060200180831161029f57829003601f168201915b505050505081565b6102cc610494565b6102d582610538565b6102df8282610540565b5050565b5f6102ec610601565b505f516020610cbe5f395f51905f5290565b61030661064a565b61030f5f6106a5565b565b7ff0c57e16840df040f15088dc2f81fe391c3923bec73e23a9662efc9c229c6a008054600160401b810460ff16159067ffffffffffffffff165f811580156103565750825b90505f8267ffffffffffffffff1660011480156103725750303b155b905081158015610380575080155b1561039e5760405163f92ee8a960e01b815260040160405180910390fd5b845467ffffffffffffffff1916600117855583156103c857845460ff60401b1916600160401b1785555b6103d133610715565b6103d9610726565b60016103e58882610bd5565b505f8690556001600255831561043557845460ff60401b19168555604051600181527fc7f505b2f371ae2175ee4913f4499e1f2633a7b5936321eed1cdaeb6115181d29060200160405180910390a15b50505050505050565b61044661064a565b60016102df8282610bd5565b61045a61064a565b6001600160a01b03811661048857604051631e4fbdf760e01b81525f60048201526024015b60405180910390fd5b610491816106a5565b50565b306001600160a01b037f000000000000000000000000000000000000000000000000000000000000000016148061051a57507f00000000000000000000000000000000000000000000000000000000000000006001600160a01b031661050e5f516020610cbe5f395f51905f52546001600160a01b031690565b6001600160a01b031614155b1561030f5760405163703e46dd60e11b815260040160405180910390fd5b61049161064a565b816001600160a01b03166352d1902d6040518163ffffffff1660e01b8152600401602060405180830381865afa92505050801561059a575060408051601f3d908101601f1916820190925261059791810190610c90565b60015b6105c257604051634c9c8ce360e01b81526001600160a01b038316600482015260240161047f565b5f516020610cbe5f395f51905f5281146105f257604051632a87526960e21b81526004810182905260240161047f565b6105fc838361072e565b505050565b306001600160a01b037f0000000000000000000000000000000000000000000000000000000000000000161461030f5760405163703e46dd60e11b815260040160405180910390fd5b3361067c7f9016d09d72d40fdae2fd8ceac6b6234c7706214fd39c1cd1e609a0528c199300546001600160a01b031690565b6001600160a01b03161461030f5760405163118cdaa760e01b815233600482015260240161047f565b7f9016d09d72d40fdae2fd8ceac6b6234c7706214fd39c1cd1e609a0528c19930080546001600160a01b031981166001600160a01b03848116918217845560405192169182907f8be0079c531659141344cd1fd0a4f28419497f9722a3daafe3b4186f6b6457e0905f90a3505050565b61071d610783565b610491816107cc565b61030f610783565b610737826107d4565b6040516001600160a01b038316907fbc7cd75a20ee27fd9adebab32041f755214dbc6bffa90cc0225b39da2e5c2d3b905f90a280511561077b576105fc8282610837565b6102df6108a9565b7ff0c57e16840df040f15088dc2f81fe391c3923bec73e23a9662efc9c229c6a0054600160401b900460ff1661030f57604051631afcd79f60e31b815260040160405180910390fd5b61045a610783565b806001600160a01b03163b5f0361080957604051634c9c8ce360e01b81526001600160a01b038216600482015260240161047f565b5f516020610cbe5f395f51905f5280546001600160a01b0319166001600160a01b0392909216919091179055565b60605f5f846001600160a01b0316846040516108539190610ca7565b5f60405180830381855af49150503d805f811461088b576040519150601f19603f3d011682016040523d82523d5f602084013e610890565b606091505b50915091506108a08583836108c8565b95945050505050565b341561030f5760405163b398979f60e01b815260040160405180910390fd5b6060826108dd576108d882610927565b610920565b81511580156108f457506001600160a01b0384163b155b1561091d57604051639996b31560e01b81526001600160a01b038516600482015260240161047f565b50805b9392505050565b80511561093657805160208201fd5b60405163d6bda27560e01b815260040160405180910390fd5b602081525f82518060208401528060208501604085015e5f604082850101526040601f19601f83011684010191505092915050565b80356001600160a01b038116811461099a575f5ffd5b919050565b634e487b7160e01b5f52604160045260245ffd5b5f5f67ffffffffffffffff8411156109cd576109cd61099f565b50604051601f19601f85018116603f0116810181811067ffffffffffffffff821117156109fc576109fc61099f565b604052838152905080828401851015610a13575f5ffd5b838360208301375f60208583010152509392505050565b5f5f60408385031215610a3b575f5ffd5b610a4483610984565b9150602083013567ffffffffffffffff811115610a5f575f5ffd5b8301601f81018513610a6f575f5ffd5b610a7e858235602084016109b3565b9150509250929050565b5f60208284031215610a98575f5ffd5b5035919050565b5f82601f830112610aae575f5ffd5b610920838335602085016109b3565b5f5f60408385031215610ace575f5ffd5b823567ffffffffffffffff811115610ae4575f5ffd5b610af085828601610a9f565b95602094909401359450505050565b5f60208284031215610b0f575f5ffd5b813567ffffffffffffffff811115610b25575f5ffd5b610b3184828501610a9f565b949350505050565b5f60208284031215610b49575f5ffd5b61092082610984565b600181811c90821680610b6657607f821691505b602082108103610b8457634e487b7160e01b5f52602260045260245ffd5b50919050565b601f8211156105fc57805f5260205f20601f840160051c81016020851015610baf5750805b601f840160051c820191505b81811015610bce575f8155600101610bbb565b5050505050565b815167ffffffffffffffff811115610bef57610bef61099f565b610c0381610bfd8454610b52565b84610b8a565b6020601f821160018114610c35575f8315610c1e5750848201515b5f19600385901b1c1916600184901b178455610bce565b5f84815260208120601f198516915b82811015610c645787850151825560209485019460019092019101610c44565b5084821015610c8157868401515f19600387901b60f8161c191681555b50505050600190811b01905550565b5f60208284031215610ca0575f5ffd5b5051919050565b5f82518060208501845e5f92019182525091905056fe360894a13ba1a3210667c828492db98dca3e2076cc3735a920a3ca505d382bbca2646970667358221220d77b9ab60849c0328701df4850b866f1f4fd6131d77cc0db16dd0254ac747d7664736f6c634300081c0033",
  "linkReferences": {},
  "deployedLinkReferences": {},
  "immutableReferences": {
    "482": [
      {
        "length": 32,
        "start": 1183
      },
      {
        "length": 32,
        "start": 1224
      },
      {
        "length": 32,
        "start": 1548
      }
    ]
  },
  "inputSourceName": "project/contracts/UpgradableContract.sol",
  "buildInfoId": "solc-0_8_28-d218e1f5f739660c8332ae7d0df3369a1d3a5357"
}