{
  "_format": "hh3-artifact-1",
  "contractName": "ERC1673",
  "sourceName": "contracts/ERC1673.sol",
  "abi": [
    {
      "inputs": [],
      "name": "inc",
      "outputs": [],
      "stateMutability": "nonpayable",
      "type": "function"
    },
    {
      "inputs": [
        {
          "internalType": "uint256",
          "name": "by",
          "type": "uint256"
        }
      ],
      "name": "incBy",
      "outputs": [],
      "stateMutability": "nonpayable",
      "type": "function"
    },
    {
      "inputs": [],
      "name": "x",
      "outputs": [
        {
          "internalType": "uint256",
          "name": "",
          "type": "uint256"
        }
      ],
      "stateMutability": "view",
      "type": "function"
    }
  ],
  "bytecode": "0x6080604052348015600e575f5ffd5b5060b380601a5f395ff3fe6080604052348015600e575f5ffd5b5060043610603a575f3560e01c80630c55699c14603e578063371303c014605757806370119d06146059575b5f5ffd5b60455f5481565b60405190815260200160405180910390f35b005b605760643660046067565b50565b5f602082840312156076575f5ffd5b503591905056fea264697066735822122027e61f830e831324c6a5af9bf20ed66668506cd45d4884d2f962206a2b237d0464736f6c634300081c0033",
  "linkReferences": {},
  "deployedLinkReferences": {},
  "immutableReferences": {},
  "inputSourceName": "project/contracts/ERC1673.sol",
  "buildInfoId": "solc-0_8_28-0b85cd463e098b81ffb32ac021a534221ada4dda"
}