{
  "_format": "hh3-artifact-1",
  "contractName": "MiniSwap",
  "sourceName": "contracts/MiniSwap.sol",
  "abi": [
    {
      "inputs": [
        {
          "internalType": "address",
          "name": "_token0",
          "type": "address"
        },
        {
          "internalType": "address",
          "name": "_token1",
          "type": "address"
        }
      ],
      "stateMutability": "nonpayable",
      "type": "constructor"
    },
    {
      "inputs": [
        {
          "internalType": "uint256",
          "name": "_amount0",
          "type": "uint256"
        },
        {
          "internalType": "uint256",
          "name": "_amount1",
          "type": "uint256"
        }
      ],
      "name": "addLiquidity",
      "outputs": [
        {
          "internalType": "uint256",
          "name": "shares",
          "type": "uint256"
        }
      ],
      "stateMutability": "nonpayable",
      "type": "function"
    },
    {
      "inputs": [
        {
          "internalType": "address",
          "name": "",
          "type": "address"
        }
      ],
      "name": "balance",
      "outputs": [
        {
          "internalType": "uint256",
          "name": "",
          "type": "uint256"
        }
      ],
      "stateMutability": "view",
      "type": "function"
    },
    {
      "inputs": [],
      "name": "getReserves",
      "outputs": [
        {
          "internalType": "uint256",
          "name": "_reserve0",
          "type": "uint256"
        },
        {
          "internalType": "uint256",
          "name": "_reserve1",
          "type": "uint256"
        }
      ],
      "stateMutability": "view",
      "type": "function"
    },
    {
      "inputs": [
        {
          "internalType": "uint256",
          "name": "_shares",
          "type": "uint256"
        }
      ],
      "name": "removeLiquidity",
      "outputs": [
        {
          "internalType": "uint256",
          "name": "amount0",
          "type": "uint256"
        },
        {
          "internalType": "uint256",
          "name": "amount1",
          "type": "uint256"
        }
      ],
      "stateMutability": "nonpayable",
      "type": "function"
    },
    {
      "inputs": [],
      "name": "reserve0",
      "outputs": [
        {
          "internalType": "uint256",
          "name": "",
          "type": "uint256"
        }
      ],
      "stateMutability": "view",
      "type": "function"
    },
    {
      "inputs": [],
      "name": "reserve1",
      "outputs": [
        {
          "internalType": "uint256",
          "name": "",
          "type": "uint256"
        }
      ],
      "stateMutability": "view",
      "type": "function"
    },
    {
      "inputs": [
        {
          "internalType": "address",
          "name": "_tokenIn",
          "type": "address"
        },
        {
          "internalType": "uint256",
          "name": "_amountIn",
          "type": "uint256"
        }
      ],
      "name": "swap",
      "outputs": [
        {
          "internalType": "uint256",
          "name": "amountOut",
          "type": "uint256"
        }
      ],
      "stateMutability": "nonpayable",
      "type": "function"
    },
    {
      "inputs": [],
      "name": "token0",
      "outputs": [
        {
          "internalType": "address",
          "name": "",
          "type": "address"
        }
      ],
      "stateMutability": "view",
      "type": "function"
    },
    {
      "inputs": [],
      "name": "token1",
      "outputs": [
        {
          "internalType": "address",
          "name": "",
          "type": "address"
        }
      ],
      "stateMutability": "view",
      "type": "function"
    },
    {
      "inputs": [],
      "name": "totalSupply",
      "outputs": [
        {
          "internalType": "uint256",
          "name": "",
          "type": "uint256"
        }
      ],
      "stateMutability": "view",
      "type": "function"
    }
  ],
  "bytecode": "0x6080604052348015600e575f5ffd5b50604051610b83380380610b83833981016040819052602b916074565b5f80546001600160a01b039384166001600160a01b0319918216179091556001805492909316911617905560a0565b80516001600160a01b0381168114606f575f5ffd5b919050565b5f5f604083850312156084575f5ffd5b608b83605a565b9150609760208401605a565b90509250929050565b610ad6806100ad5f395ff3fe608060405234801561000f575f5ffd5b506004361061009b575f3560e01c80639c8f9f23116100635780639c8f9f23146101135780639cd441da14610126578063d004f0f714610139578063d21220a71461014c578063e3d670d71461015f575f5ffd5b80630902f1ac1461009f5780630dfe1681146100c057806318160ddd146100ea578063443cb4bc146101015780635a76f25e1461010a575b5f5ffd5b6002546003545b604080519283526020830191909152015b60405180910390f35b5f546100d2906001600160a01b031681565b6040516001600160a01b0390911681526020016100b7565b6100f360045481565b6040519081526020016100b7565b6100f360025481565b6100f360035481565b6100a661012136600461094c565b61017e565b6100f3610134366004610963565b610391565b6100f3610147366004610999565b610576565b6001546100d2906001600160a01b031681565b6100f361016d3660046109c1565b60056020525f908152604090205481565b335f9081526005602052604081205481908311156101d95760405162461bcd60e51b8152602060048201526013602482015272496e73756666696369656e742073686172657360681b60448201526064015b60405180910390fd5b6004546002546101e990856109ee565b6101f39190610a05565b91506004546003548461020691906109ee565b6102109190610a05565b90505f8211801561022057505f81115b61023c5760405162461bcd60e51b81526004016101d090610a24565b335f908152600560205260408120805485929061025a908490610a54565b925050819055508260045f8282546102729190610a54565b925050819055508160025f82825461028a9190610a54565b925050819055508060035f8282546102a29190610a54565b90915550505f5460405163a9059cbb60e01b8152336004820152602481018490526001600160a01b039091169063a9059cbb906044016020604051808303815f875af11580156102f4573d5f5f3e3d5ffd5b505050506040513d601f19601f820116820180604052508101906103189190610a67565b5060015460405163a9059cbb60e01b8152336004820152602481018390526001600160a01b039091169063a9059cbb906044016020604051808303815f875af1158015610367573d5f5f3e3d5ffd5b505050506040513d601f19601f8201168201806040525081019061038b9190610a67565b50915091565b5f80546040516323b872dd60e01b8152336004820152306024820152604481018590526001600160a01b03909116906323b872dd906064016020604051808303815f875af11580156103e5573d5f5f3e3d5ffd5b505050506040513d601f19601f820116820180604052508101906104099190610a67565b506001546040516323b872dd60e01b8152336004820152306024820152604481018490526001600160a01b03909116906323b872dd906064016020604051808303815f875af115801561045e573d5f5f3e3d5ffd5b505050506040513d601f19601f820116820180604052508101906104829190610a67565b506004545f036104a55761049e61049983856109ee565b6108c5565b90506104e5565b6104e2600254600454856104b991906109ee565b6104c39190610a05565b6003546004546104d390866109ee565b6104dd9190610a05565b610933565b90505b5f81116105045760405162461bcd60e51b81526004016101d090610a24565b335f9081526005602052604081208054839290610522908490610a8d565b925050819055508060045f82825461053a9190610a8d565b925050819055508260025f8282546105529190610a8d565b925050819055508160035f82825461056a9190610a8d565b90915550909392505050565b5f80546001600160a01b038481169116148061059f57506001546001600160a01b038481169116145b6105db5760405162461bcd60e51b815260206004820152600d60248201526c24b73b30b634b2103a37b5b2b760991b60448201526064016101d0565b5f821161062a5760405162461bcd60e51b815260206004820152601d60248201527f416d6f756e74206d7573742062652067726561746572207468616e203000000060448201526064016101d0565b5f80546001600160a01b0385811691161490808261064d57600354600254610654565b6002546003545b6040516323b872dd60e01b81523360048201523060248201526044810188905291935091506001600160a01b038716906323b872dd906064016020604051808303815f875af11580156106a9573d5f5f3e3d5ffd5b505050506040513d601f19601f820116820180604052508101906106cd9190610a67565b505f6106db866103e56109ee565b9050806106ea846103e86109ee565b6106f49190610a8d565b6106fe83836109ee565b6107089190610a05565b94505f851161074f5760405162461bcd60e51b8152602060048201526013602482015272125b9cdd59999a58da595b9d081bdd5d1c1d5d606a1b60448201526064016101d0565b81851061076e5760405162461bcd60e51b81526004016101d090610a24565b831561081a578560025f8282546107859190610a8d565b925050819055508460035f82825461079d9190610a54565b909155505060015460405163a9059cbb60e01b8152336004820152602481018790526001600160a01b039091169063a9059cbb906044016020604051808303815f875af11580156107f0573d5f5f3e3d5ffd5b505050506040513d601f19601f820116820180604052508101906108149190610a67565b506108bb565b8560035f82825461082b9190610a8d565b925050819055508460025f8282546108439190610a54565b90915550505f5460405163a9059cbb60e01b8152336004820152602481018790526001600160a01b039091169063a9059cbb906044016020604051808303815f875af1158015610895573d5f5f3e3d5ffd5b505050506040513d601f19601f820116820180604052508101906108b99190610a67565b505b5050505092915050565b5f60038211156109245750805f6108dd600283610a05565b6108e8906001610a8d565b90505b8181101561091e579050806002816109038186610a05565b61090d9190610a8d565b6109179190610a05565b90506108eb565b50919050565b811561092e575060015b919050565b5f8183106109415781610943565b825b90505b92915050565b5f6020828403121561095c575f5ffd5b5035919050565b5f5f60408385031215610974575f5ffd5b50508035926020909101359150565b80356001600160a01b038116811461092e575f5ffd5b5f5f604083850312156109aa575f5ffd5b6109b383610983565b946020939093013593505050565b5f602082840312156109d1575f5ffd5b61094382610983565b634e487b7160e01b5f52601160045260245ffd5b8082028115828204841417610946576109466109da565b5f82610a1f57634e487b7160e01b5f52601260045260245ffd5b500490565b602080825260169082015275496e73756666696369656e74206c697175696469747960501b604082015260600190565b81810381811115610946576109466109da565b5f60208284031215610a77575f5ffd5b81518015158114610a86575f5ffd5b9392505050565b80820180821115610946576109466109da56fea264697066735822122059e97d72aa5a37a7b28a508df7be1d78a4d7d77af0563c680d6105cbd9d0ff5764736f6c634300081c0033",
  "linkReferences": {},
  "deployedLinkReferences": {},
  "immutableReferences": {},
  "inputSourceName": "project/contracts/MiniSwap.sol",
  "buildInfoId": "solc-0_8_28-6c6100623c28c5e719a3c3a43e215d734396e795"
}